:100A5B002020205573657220200020656E7465720E
:100A6B006564202D20310020656E74657265642DE0
:100A7B0020340020202055736572200020656E7491
:100A8B0065726564202D2037002063686F6F736576
:100A9B0020696E7465676572200020202055736590
:100AAB00722020200020656E7465726564202D20F5
:100ABB00320020656E7465726564202D2035002030
:100ACB00656E7465726564202D2038002067726531
:100ADB0061746572207468616E20300020656E74DD
:100AEB0065726564202D20330020656E7465726518
:100AFB0064202D20360020656E7465726564202D90
:100B0B00203900456E7465722070726F6475637462
:100B1B0020002066726F6D2034206F7074696F6EC9
:100B2B0073202000456E746572206E6F2E206F66E9
:100B3B000020686F6C6573203A00204D6172696507
:100B4B00204C69746520002020202050756E63684E
:100B5B00696E670042616B696E6720696E20707207
:100B6B006F6365737300205061636B696E67002060
:100B7B00426F7572626F6E2000204B7261636B2047
:100B8B004A61636B2000204D6320566974696527A9
:100B9B00732000202020202050756E6368696E67DB
:100BAB000020507573682053746172740042757421
:040BBB00746F6E00E5
:060E6800D2977F147E000A
:100E6E00E4FDFCC3ED9FEC9E5015E4FBFA0BBB00BA
:0F0E7E00010ABA04F8BBFBF50DBD00010C80E4BE
:010E8D002242
:100E41007F647E00120E6EC2B7C2B5D2B2D2B0C2FA
:050E5100B3C2B17F01F6
:100E56008F80C2A0C2A1D2A27F017E00120E6EC2F6
:020E6600A222C6
:100E8E008F80D2A0C2A1D2A27F017E00120E6EC2AE
:020E9E00A2228E
:050DDF007F01120E5619
:100DE4007F38120E567F0A7E00120E6E7F0F120E8F
:100DF400567F0A7E00120E6E7F01120E567F0A7E07
:100E040000120E6E7F81120E567F0A7E00020E6E55
:100D95007F3C7E00120E6E7F01120E567BFF7A0B92
:020DA500797162
:060DA7008B088A09890A8D
:100DAD00E4F50BF50CAB08AA09A90A850C82850B95
:100DBD0083120E14FF6014120E8E7F057E00120E2C
:100DCD006E050CE50C70DE050B80DA7F0A7E0002E5
:020DDD000E6E98
:100C6500D293D292D291D290C29020941B7F01123E
:100C75000E567BFF7A0A795B120DA77FC0120E56BE
:100C85007BFF7A0A79658042D290C29120941B7FBE
:100C950001120E567BFF7A0A795B120DA77FC012EF
:100CA5000E567BFF7A0A79728020D291C2922094E7
:100CB500237F01120E567BFF7A0A797E120DA77FDC
:100CC500C0120E567BFF7A0A7987120DA77F0A7E1E
:100CD50000020E6ED292C2932094187F01120E5616
:100CE5007BFF7A0A7994120DA77F027E00120E6EA1
:080CF500020C65D293020C65AC
:100BBF00D293D292D291D290C29020951B7F0112E4
:100BCF000E567BFF7A0A79A5120DA77FC0120E561B
:100BDF007BFF7A0A79B08042D290C29120951B7F19
:100BEF0001120E567BFF7A0A79A5120DA77FC0124C
:100BFF000E567BFF7A0A79BD8020D291C292209542
:100C0F00237F01120E567BFF7A0A79A5120DA77F5B
:100C1F00C0120E567BFF7A0A79CA120DA77F0A7E81
:100C2F0000020E6ED292C2932095267F01120E56AD
:100C3F007BFF7A0A795B120DA77FC0120E567BFFDE
:100C4F007A0A79D7120DA77F027E00120E6E020B61
:060C5F00BFD293020BBF9F
:100CFD00D293D292D291D290C29020961B7F0112A4
:100D0D000E567BFF7A0A795B120DA77FC0120E5625
:100D1D007BFF7A0A79E78042D290C29120961B7FA1
:100D2D0001120E567BFF7A0A797E120DA77FC01233
:100D3D000E567BFF7A0A79F48020D291C2922096CA
:100D4D00237F01120E567BFF7A0A797E120DA77F43
:100D5D00C0120E567BFF7A0B7901120DA77F0A7E0A
:100D6D0000020E6ED292C2932096187F01120E567B
:100D7D007BFF7A0A7994120DA77F027E00120E6E08
:080D8D00020CFDD293020CFDE3
:10080000C2A7C2A6C2A5C2A4C2A3C297C2B7C2B49D
:10081000C2B6C2B5C2B3C2B2C2B1C2B020A703024F
:100820000A39120DDF7BFF7A0B790E120DA77FC0FC
:10083000120E567BFF7A0B791D120DA730A4047F90
:100840000180027F0030A3047E0180027E00EE4F13
:10085000FF30A5047E0180027E00EE4FFF30A6042B
:100860007E0180027E00EE4F603E120DDF7BFF7A3C
:100870000B792F120DA77FC0120E567BFF7A0B79D2
:100880003C120DA7D294D295D296C293C292C29135
:10089000C290209405120C65800E209505120BBFA6
:1008A0008006209697120CFD30A35B120DDF7BFFB4
:1008B0007A0B7945120DA720A7047F0180027F00E3
:1008C00020A3047E0180027E00EE4F7039D2B7D2A1
:1008D000B5D2B3D2B17FC0120E567BFF7A0B7952DC
:1008E000120DA7120E417BFF7A0B7945120DA77FDF
:1008F000C0120E567BFF7A0B795F120DA7120D9571
:10090000120E680208A830A466120DDF7BFF7A0B76
:10091000797A120DA720A7047F0180027F0020A40E
:10092000047E0180027E00EE4F7044D2B7D2B6D270
:10093000B3D2B17FC0120E567BFF7A0B7952120DE3
:10094000A77F647E00120E6EC2B7C2B6120E4C7B39
:10095000FF7A0B797A120DA77FC0120E567BFF7AB1
:100960000B795F120DA7120D95120E680209063061
:10097000A55B120DDF7BFF7A0B7984120DA720A7F0
:10098000047F0180027F0020A5047E0180027E009A
:10099000EE4F7039D2B7D2B5D2B3D2B17FC0120EFA
:1009A000567BFF7A0B7952120DA7120E417BFF7A0C
:1009B0000B7984120DA77FC0120E567BFF7A0B793C
:1009C0005F120DA7120D95120E6802096F20A60383
:1009D000020A5A120DDF7BFF7A0B7991120DA720C4
:1009E000A7047F0180027F0020A6047E0180027E92
:1009F00000EE4F7065D2B7D2B6D2B3D2B17FC0127B
:100A00000E567BFF7A0B799E120DA77F647E001233
:100A10000E6EC2B7C2B6120E4C7BFF7A0B799112E2
:100A20000DA77FC0120E567BFF7A0B795F120DA7C0
:100A3000120D95120E680209CD7F01120E56D2B426
:100A4000120DE47BFF7A0B79AC120DA77FC0120E5A
:0B0A5000567BFF7A0B79B8120DA7222D
:03000000020EA04D
:0C0EA000787FE4F6D8FD75810C02080094
:100E1400BB010CE58229F582E5833AF583E0225093
:100E240006E92582F8E622BBFE06E92582F8E222DD
:0D0E3400E58229F582E5833AF583E49322F7
:00000001FF
